:020000040000FA
:04000000B1EF0CF060
:101000000044617461206F662069203D20256400E2
:0110100000DF
:101012001EC036F01FC037F020C038F021C039F0B2
:1010220022C03AF023C03BF024C03CF025C03DF082
:101032003DAE02D0010E01D0000E346E356A34503E
:101042003510D8B410D03D1E3C1E3B1E3A1E391E30
:10105200381E371E366C000E3722382239223A22C9
:101062003B223C223D22000165AF5E9265BF05D066
:10107200655108E16405D8B005D0000E316E010E4D
:10108200306E04D064C030F065C031F062C032F01E
:1010920063C033F034503510D8A402D05EA403D01C
:1010A2003206D8A03306000E3F6E1F0E3E6E000EB3
:1010B200856F7CD03E06D8A03F06660E3E24D96ED0
:1010C200000E3F20DA6E36C001F037C002F038C0A1
:1010D20003F039C004F03AC005F03BC006F03CC052
:1010E20007F03DC008F00A0E096E000E0A6E000EEF
:1010F2000B6E000E0C6E000E0D6E000E0E6E000ECC
:101102000F6E000E106E8FEC0AF001C026F002C0C6
:1011120027F003C028F004C029F005C02AF006C059
:101122002BF007C02CF008C02DF026C013F028C009
:1011320014F023EC0DF01350300FDF6E3006D8A000
:1011420031063206D8A0330636C001F037C002F0AD
:1011520038C003F039C004F03AC005F03BC006F0D5
:101162003CC007F03DC008F00A0E096E000E0A6E80
:10117200000E0B6E000E0C6E000E0D6E000E0E6E4B
:10118200000E0F6E000E106EEBEC09F001C036F08F
:1011920002C037F003C038F004C039F005C03AF09D
:1011A20006C03BF007C03CF008C03DF03FBE1FD078
:1011B2003F5003E13E04D8A01AD036503710381001
:1011C20039103A103B103C103D10D8A473D731BEF1
:1011D20005D0315002E13004D8B06CD733BE07D00D
:1011E200335003E13204D8A002D05EB263D7345048
:1011F2003510D8A402D05EA417D03E06D8A03F0670
:1012020034503510D8A404D0000E2F6E2B0E03D00C
:10121200000E2F6E2D0E2E6E660E3E24D96E000E1F
:101222003F20DA6E2EC0DFFF1CC011F01DC012F08D
:10123200660E3E24136E000E3F20146E32C015F06F
:1012420033C016F0D5EC0BF011C01CF012C01DF02B
:10125200120042C0D9FF43C0DAFFDECFF6FFDDCF76
:10126200F7FF0800F550250AD8A49AD042C0D9FF4A
:1012720043C0DAFFDE2A000EDD22000E0001636F9A
:10128200000E626F62C05EF063C05FF06469656900
:1012920042C0D9FF43C0DAFFDECFF6FFDDCFF7FF52
:1012A2000800F550640AD8B40DD042C0D9FF43C03B
:1012B200DAFFDECFF6FFDDCFF7FF0800F550690A4F
:1012C200D8A43FD042C0D9FF43C0DAFFDE2A000EC5
:1012D200DD2244C0D9FF45C0DAFFDFCF46F0020E5F
:1012E200DE26DFCF47F0000EDD2246C0D9FF47C021
:1012F200DAFFDECF48F0DDCF49F0000E49BEFF0E27
:101302004A6E4B6E4C6E4D6E4E6E4F6E40C01CF070
:1013120041C01DF048C01EF049C01FF04AC020F075
:101322004BC021F04CC022F04DC023F04EC024F03F
:101332004FC025F009EC08F01CC040F01DC041F080
:10134200120042C0D9FF43C0DAFFDECFF6FFDDCF85
:10135200F7FF0800F550250AD8A416D042C0D9FFDD
:1013620043C0DAFFDE2A000EDD22000E026E250ED9
:10137200016E40C003F041C004F085EC0BF0000E9A
:10138200416E010E406E120042C0D9FF43C0DAFF27
:10139200DE2A000EDD22000E416E000E406E1200AB
:1013A20042C0D9FF43C0DAFFDECFF6FFDDCFF7FF41
:1013B2000800F550016E026A40C003F041C004F01B
:1013C20085EC0BF042C0D9FF43C0DAFFDE2A000EE3
:1013D200DD22D5D7000E126E10AE12D0101E0F1ED7
:1013E2000E1E0D1E0C1E0B1E0A1E096C000E0A227A
:1013F2000B220C220D220E220F221022010E126E3F
:1014020008AE12D0081E071E061E051E041E031E6D
:10141200021E016C000E0222032204220522062271
:1014220007220822010E121A20EE13F0070EDE6ABE
:10143200E806FDE209500A100B100C100D100E10F8
:101442000F101010D8B446D0010E116E0AD0D890E9
:1014520009360A360B360C360D360E360F36103676
:10146200112A10AEF4D7D890133614361536163624
:101472001736183619361A360950015C0A500258C6
:101482000B5003580C5004580D5005580E50065876
:101492000F50075810500858D8A011D00950015EBB
:1014A2000A50025A0B50035A0C50045A0D50055A56
:1014B2000E50065A0F50075A1050085A1380D890EF
:1014C20010320F320E320D320C320B320A32093226
:1014D200112EC9D71250D8B410D01A1E191E181EB8
:1014E200171E161E151E141E136C000E1422152232
:1014F20016221722182219221A2213C001F014C030
:1015020002F015C003F016C004F017C005F018C0B1
:1015120006F019C007F01AC008F01200000E126E91
:1015220008AE12D0081E071E061E051E041E031E4C
:10153200021E016C000E0222032204220522062250
:1015420007220822010E126E10AE10D0101E0F1EBE
:101552000E1E0D1E0C1E0B1E0A1E096C000E0A2208
:101562000B220C220D220E220F22102209500A10E9
:101572000B100C100D100E100F101010D8B43CD020
:10158200010E116E0AD0D89009360A360B360C3687
:101592000D360E360F361036112A10AEF4D709501A
:1015A200015C0A5002580B5003580C5004580D505D
:1015B20005580E5006580F50075810500858D8A01A
:1015C20010D00950015E0A50025A0B50035A0C50B7
:1015D200045A0D50055A0E50065A0F50075A105011
:1015E200085AD89010320F320E320D320C320B32B2
:1015F2000A320932112ED3D71250D8B410D0081E95
:10160200071E061E051E041E031E021E016C000E8E
:10161200022203220422052206220722082201C0F6
:1016220001F002C002F003C003F004C004F005C0E0
:1016320005F006C006F007C007F008C008F0120067
:10164200000E966EF80E996E909290909094000E05
:10165200026EC80E016E09EC0DF0000E066E300E21
:10166200D0EC0CF0000E066E300ED0EC0CF0000E3A
:10167200066E300ED0EC0CF0000E066E380ED0EC7A
:101682000CF0000E066E100ED0EC0CF0000E066E82
:101692000F0ED0EC0CF0000E066E060ED0EC0CF025
:1016A200000E066E010ED0EC0CF0000E026E640EFF
:1016B200016E09EC0DF0000E066E8A0ED0EC0CF0F5
:1016C200010E066E4F0ED0EC0CF0010E066E6C0E83
:1016D200D0EC0CF0010E066E6C0ED0EC0CF0010E8C
:1016E200066E650ED0EC0CF0010E066E680ED0ECA4
:1016F2000CF0000E066EC00ED0EC0CF0010E066E61
:10170200230ED0EC0CF0120003500410D8B404D015
:1017120003500410D8A404D0015073EC0DF0120051
:1017220020EE04F00350D9260450DA22DE50DE10F7
:10173200D8B416D020EE04F00350D9260450DA2291
:1017420010EE02F00350E1260450E222DE50E65C85
:10175200E650800A096EDE50800A0958D8B012009D
:1017620020EE02F00350D9260450DA22DECF05F033
:10177200DDCF06F003C0D9FF04C0DAFFDECF07F0E9
:10178200DDCF08F005500724D96E06500820DA6E26
:1017920001C0DFFF20EE02F00350D9260450DA2206
:1017A200DE2A000EDD2212005EA00AD013C00AF06B
:1017B20014C00BF011C00CF012C00DF0EDEC0CF0E7
:1017C20016BE05D015C01AF016C01BF004D0000ECC
:1017D2001B6E000E1A6E000E196E000E186E0CD0E3
:1017E200000E026E200E016E11C003F012C004F052
:1017F20085EC0BF0184A192A1A50185C1950800A05
:10180200176E1B50800A1758D8A0EAD75EB00AD0CC
:1018120013C00AF014C00BF011C00CF012C00DF08E
:10182200EDEC0CF013C001F014C002F03CEC0DF032
:101832001A500124116E1B500220126E120020EE6B
:10184200BCF010EE90F0090EDBCFE3FFE806FCE2FD
:1018520021EC0BF09A0E586E000E596E010E5A6E64
:10186200100E5B6EAAC05CF0ABC05DF088EC0CF0B1
:10187200000E0001AB6F000EAA6F0ED0010E066EB5
:101882009A0EAA25D96E000EAB21DA6EDF50D0EC8B
:101892000CF00001AA4BAB2B9A0EAA25D96E000EB2
:1018A200AB21DA6EDF50D8A4E9D7000E066E800EA7
:1018B200D0EC0CF000EF00F052C056F053C057F0DD
:1018C200000E0001616F000E606F13D050C040F037
:1018D20051C041F0560E426E000E436E54C044F0A9
:1018E20055C045F02AEC09F04050000160274150F4
:1018F200612356C0F6FF57C0F7FF0800F5500009F4
:10190200D8A4E4D760C050F061C051F012005C0E60
:101912000001886F000E896F58C08AF059C08BF0A1
:10192200000E8D6F000E8C6F000E8F6F000E8E6F8B
:101932008A0E506E000E516E5AC052F05BC053F0C8
:10194200880E546E000E556E5DEC0CF000018C5149
:101952005824D96E8D515920DA6E000EDF6E1200B6
:10196200CC0EF66E1A0EF76E000EF86E00EEACF0AC
:1019720010EE1AF00900F5CFEEFFE550E150FAE162
:1019820000EE60F0260EEE6AE806FDE15F6A5E6A2E
:10199200000EF86E100EF76E000120EF0CF0076ECD
:1019A20006B002D0909401D09084000E026E010E17
:1019B200016E09EC0DF007C08DFF9080000E026EE3
:1019C200010E016E51EC0DF09090000E026E320E7F
:1019D200016E51EC0DF01200000E106E000E0F6E33
:1019E2000BD00EC001F0026A0CC003F00DC004F06F
:1019F20085EC0BF00F4A102A0F500A24D96E1050B2
:101A02000B20DA6EDF500E6E0E50D8B41200E9D7FA
:101A1200000E056E000E046E0AD0090E036E1C0E37
:101A2200E82EFED7032EFCD700D0044A052A015027
:101A3200045C0550800A036E0250800A0358D8B035
:101A42001200EBD714BE05D0145010E11304D8B025
:101A52000DD013C015F014C016F0151E161E154A2F
:101A6200162A15C013F016C014F0120013C013F09A
:101A720014C014F0120001C003F002C004F002D03E
:101A8200014A022A01C0D9FF02C0DAFFDF50D8A4FE
:101A9200F7D70350015C016E04500258026E120027
:101AA200000E056E000E046E05D000D000D000D0EE
:101AB200044A052A0150045C0550800A036E025054
:101AC200800A0358D8B01200F0D7EB777B7DB7BB02
:101AD200BDD7DBDD7EBEDEEEE7ED48656C6C6F20C8
:061AE2002E2E2E00120062
:020000040001F9
:06FFF800A0F4C4FFF8F7BD
:00000001FF
